:020000040800F2
:10000000A006002089010008DB050008D3050008D0
:10001000D7050008430200085D0B0008000000003F
:100020000000000000000000000000008106000841
:10003000ED03000800000000DD050008950700083A
:10004000A3010008A3010008A3010008A301000800
:10005000A3010008A3010008A3010008A3010008F0
:10006000A3010008A3010008A3010008A3010008E0
:10007000A3010008A3010008A3010008A3010008D0
:10008000A3010008A3010008A3010008A3010008C0
:10009000A3010008A3010008A3010008A3010008B0
:1000A000A3010008A3010008A3010008A3010008A0
:1000B000A3010008A3010008A3010008A301000890
:1000C000A3010008A3010008A3010008A301000880
:1000D000A3010008A3010008A3010008A301000870
:1000E000A3010008A3010008A301000800F002F822
:1000F00000F03AF80AA090E8000C82448344AAF188
:100100000107DA4501D100F02FF8AFF2090EBAE885
:100110000F0013F0010F18BFFB1A43F0010318473B
:10012000280D0000480D0000103A24BF78C878C19F
:10013000FAD8520724BF30C830C144BF04680C60ED
:10014000704700000023002400250026103A28BF35
:1001500078C1FBD8520728BF30C148BF0B60704739
:100160001FB51FBD10B510BD00F031F81146FFF7E7
:10017000F7FF00F047FE00F04FF803B4FFF7F2FF7F
:1001800003BC00F057F800000948804709480047C1
:10019000FEE7FEE7FEE7FEE7FEE7FEE7FEE7FEE737
:1001A000FEE7FEE704480549054A064B7047000094
:1001B00099070008ED000008A0000020A00600201C
:1001C000A0020020A00200207047704770477546CB
:1001D00000F02CF8AE4605006946534620F00700B3
:1001E000854618B020B5FFF7DDFFBDE820404FF091
:1001F00000064FF000074FF000084FF0000B21F011
:100200000701AC46ACE8C009ACE8C009ACE8C009DD
:10021000ACE8C0098D46704710B50446AFF30080C6
:100220002046BDE81040FFF7A8BF00000048704717
:100230003C00002001491820ABBEFEE7260002006A
:10024000704700BFFEE721B1026842F00102026080
:1002500004E002684FF6FE731A4002607047000027
:1002600001684FF6FE72114001600021016041609B
:100270008160C1604B49884208D14A4908394968C0
:1002800041F00F01474A083A51608AE0454914316C
:10029000884208D143490839496841F0F001414A90
:1002A000083A51607DE03F492831884208D13D49F4
:1002B0000839496841F470613A4A083A516070E07F
:1002C00038493C31884208D136490839496841F4F7
:1002D0007041344A083A516063E0324950318842F3
:1002E00008D130490839496841F470212D4A083A4B
:1002F000516056E02B496431884208D129490839B8
:10030000496841F47001274A083A516049E025499B
:100310007831884208D123490839496841F0706131
:10032000204A083A51603CE01F49884206D1011F2B
:10033000096841F00F01021F116032E01A491431BF
:10034000884208D11849091F096841F0F001164A8E
:10035000121F116025E014492831884208D1124942
:10036000091F096841F470610F4A121F116018E0FB
:100370000D493C31884208D10B49091F096841F4F5
:100380007041094A121F11600BE007495031884241
:1003900007D10549091F096841F47021024A121F5B
:1003A00011607047080002400804024010B50022A6
:1003B000026847F6F0739A430C6A8B6823430C6912
:1003C00023434C6923438C692343CC6923434C6A00
:1003D00023438C6A23431A430260CB6843600B6853
:1003E00083604B68C36010BD416070477047000078
:1003F00010B504462948844208D10121042000F0A8
:100400002FF90021042000F02BF946E02448844213
:1004100008D10121082000F023F90021082000F074
:100420001FF93AE01F48844208D10121102000F052
:1004300017F90021102000F013F92EE01A48844229
:1004400008D10121202000F00BF90021202000F02C
:1004500007F922E01548844208D10121402000F02C
:10046000FFF80021402000F0FBF816E0104884421D
:1004700008D10121802000F0F3F80021802000F055
:10048000EFF80AE00B48844207D10121801500F003
:10049000E7F80021A01500F0E3F810BD00080140C6
:1004A000000C014000100140001401400018014000
:1004B000001C0140002001402DE9F04102460025CA
:1004C0000026002000230024002791F803C00CF030
:1004D0000F0591F803C00CF0100CBCF1000F03D015
:1004E00091F802C04CEA050591F800C0BCF1000F7C
:1004F00031D0146800202BE04FF0010C0CFA00F30F
:10050000B1F800C00CEA03069E4220D183004FF0F0
:100510000F0C0CFA03F7BC4305FA03FC4CEA040485
:1005200091F803C0BCF1280F06D14FF0010C0CFA72
:1005300000FCC2F814C00AE091F803C0BCF1480FF7
:1005400005D14FF0010C0CFA00FCC2F810C0401CA1
:100550000828D1D31460B1F800C0BCF1FF0F34DD1E
:10056000546800202EE000F1080C4FF0010808FA52
:100570000CF3B1F800C00CEA03069E4221D18300BF
:100580004FF00F0C0CFA03F7BC4305FA03FC4CEADE
:10059000040491F803C0BCF1280F05D100F1080C48
:1005A00008FA0CF8C2F8148091F803C0BCF1480FA7
:1005B00007D100F1080C4FF0010808FA0CF8C2F856
:1005C0001080401C0828CED35460BDE8F081416102
:1005D000704700BFFEE700BFFEE7704770470000AE
:1005E00029B1064A52690243044B5A6104E0034AA6
:1005F00052698243014B5A6170470000001002406B
:1006000029B1064AD2690243044BDA6104E0034A85
:10061000D2698243014BDA6170470000001002404A
:1006200029B1064A12690243044B1A6104E0034AE5
:1006300012698243014B1A617047000000100240AA
:1006400029B1064A92690243044B9A6104E0034AC5
:1006500092698243014B9A6170470000001002408A
:1006600029B1064AD2680243044BDA6004E0034A27
:10067000D2688243014BDA607047000000100240EC
:10068000704710B500F002F810BD00000CB5002056
:10069000019000903348006840F480303149086090
:1006A00000BF3048006800F4003000900198401C02
:1006B0000190009818B90198B0F5A06FF1D12948C0
:1006C000006800F4003010B10120009001E000202B
:1006D00000900098012843D12348006840F01000A2
:1006E000214908600846006820F0030008600846B9
:1006F000006840F0020008601A48406819494860E4
:100700000846406848600846406840F48060486099
:100710000846406820F47C1048600846406840F471
:10072000E81048600846006840F08070086000BF2C
:100730000C48006800F000700028F9D009484068B3
:1007400020F00300074948600846406840F0020076
:10075000486000BF0348406800F00C000828F9D149
:100760000CBD00000010024000200240042808D107
:100770004FF0E021096941F004014FF0E0221161DE
:1007800007E04FF0E021096921F004014FF0E02279
:10079000116170477047000010B51348006840F0C1
:1007A00001001149086008464068104908400E4998
:1007B0004860084600680E4908400B490860084632
:1007C000006820F4802008600846406820F4FE009D
:1007D00048604FF41F008860FFF753FF4FF0006040
:1007E0000449086010BD0000001002400000FFF83E
:1007F000FFFFF6FE08ED00E021B1028842F00102A1
:10080000028004E002884FF6FE731A4002807047AF
:100810001AB183890B43838102E083898B438381EF
:100820007047000010B504466848844208D1012191
:10083000C014FFF715FF0021E014FFF711FFC4E01B
:10084000B4F1804F08D101210846FFF7E9FE0021ED
:100850000120FFF7E5FEB8E05D48844208D10121A0
:100860000220FFF7DDFE00210220FFF7D9FEACE0F9
:100870005848844208D101210420FFF7D1FE00210D
:100880000420FFF7CDFEA0E05348844208D10121A7
:100890000820FFF7C5FE00210820FFF7C1FE94E005
:1008A0004E48844208D101211020FFF7B9FE0021F3
:1008B0001020FFF7B5FE88E04948844208D10121A5
:1008C0002020FFF7ADFE00212020FFF7A9FE7CE0ED
:1008D0004448844208D101214014FFF7C1FE0021A1
:1008E0006014FFF7BDFE70E03F48844209D101214A
:1008F000C804FFF7B5FE00214FF40020FFF7B0FE5B
:1009000063E03A48844209D101210805FFF7A8FEB7
:1009100000214FF48010FFF7A3FE56E034488442D4
:1009200009D101214805FFF79BFE00214FF400107B
:10093000FFF796FE49E02F48844208D1012140206C
:10094000FFF76EFE00214020FFF76AFE3DE02A48D7
:10095000844208D101218020FFF762FE002180201F
:10096000FFF75EFE31E02548844208D10121801561
:10097000FFF756FE0021A015FFF752FE25E02048A4
:10098000844209D101210804FFF76AFE00214FF4D7
:100990008030FFF765FE18E01A48844209D1012132
:1009A0004804FFF75DFE00214FF40030FFF758FECA
:1009B0000BE01548844208D101218804FFF750FE5E
:1009C00000214FF48020FFF74BFE10BD002C0140AA
:1009D0000004004000080040000C004000100040EF
:1009E0000014004000340140004C01400050014020
:1009F0000054014000180040001C0040002000404E
:100A000000400140004401400048014070B500240E
:100A100000220023058C4FF6FE7635400584028CBB
:100A20008388048B4FF68F752C40B51E2C400D88A3
:100A30002C43751E2A400D892A434D882A43144DA4
:100A4000A8420BD0134DA84208D0134DA84205D0A0
:100A5000124DA84202D0124DA84213D14FF6F7759D
:100A60002A404D892A434FF6FB752A408D882A4338
:100A70004FF6FF652B404FF6FF552B408D892B43DA
:100A8000CD892B4383800483CD888586028470BD05
:100A9000002C01400034014000400140004401406E
:100AA000004801400A460021018B4FF6F7731940B8
:100AB0001143018370470000002202881D4B9842B9
:100AC0000ED01D4B98420BD0B0F1804F08D01B4B7D
:100AD000984205D01A4B984202D01A4B984204D142
:100AE0004FF68F731A404B881A43174B984207D022
:100AF000164B984204D04FF6FF431A40CB881A4356
:100B000002808B8883850B8803850A4B98420BD023
:100B1000094B984208D00E4B984205D00D4B984295
:100B200002D00D4B984201D10B7A038601238382B8
:100B300070470000002C01400034014000040040D8
:100B400000080040000C004000100040001400406D
:100B500000400140004401400048014000BFFEE762
:100B600010B501210420FFF74BFD01210820FFF7FC
:100B700067FD01210846FFF733FD10BD10B505489C
:100B8000FFF736FC0448FFF74DFE0448FFF768FB0B
:100B900010BD0000000C01400008004008000240A9
:100BA00000B58BB01020029012200390002004901A
:100BB000802005904000069080000790002008905B
:100BC0004FF40050099000200A9007480090074811
:100BD000019069460648FFF7E9FB00210448FFF74A
:100BE00032FB0BB000BD00003408004018000020AC
:100BF0000800024008B518208DF803004020ADF829
:100C0000000001208DF8020069460448FFF754FCFB
:100C100040210248FFF7DBFC08BD0000000C01404A
:100C20001FB56020ADF800000120ADF802000020E3
:100C3000ADF80800ADF8060069460448FFF7E6FE87
:100C400008210248FFF72EFF1FBD000000080040EA
:100C50000EB50020ADF80600ADF802004F20ADF84B
:100C600004000220ADF8000069460648FFF724FFA3
:100C7000012251020348FFF7CBFD00210148FFF795
:100C8000BBFD0EBD0008004010B56FF00400FFF77B
:100C90006DFD0A4800680A49B0FBF1F00949087087
:100CA0000846007800EB4001C1EBC0104FF6FF7121
:100CB00001EAC0000449088010BD000000000020C7
:100CC00000127A0014000020160000200146114A8C
:100CD00012884A434FF0E0235A6100229A611A4673
:100CE000126942F001021A6100BF4FF0E022106960
:100CF00000F001021AB100F48032002AF5D04FF062
:100D0000E022126922F001024FF0E0231A61002272
:100D10009A6170471600002010B500210548FFF7C2
:100D200092FA12210348FFF75FFB01210148FFF708
:100D30008AFA10BD0800024070B503460C460CB19B
:100D4000012500E0002545EA4305A8B2002201463E
:100D5000002502E04A4009116D1C032DFADB1546FF
:100D600060F31F15A8B270BD70B505462E46B6F5E6
:100D7000006F02DB4FF4006000E0304606460021C1
:100D80003046FFF7D9FF064600240CE006FA04F0CF
:100D900000F4004008B1382000E01C20054921F88B
:100DA0001400601CC4B2102CF0DB00200149088440
:100DB000488470BD1800002010B50024FFF7DEFE47
:100DC000FFF7CEFEFFF716FFFFF742FFFFF728FF02
:100DD000FFF7E6FE01210A48FFF70EFD4FF47A7097
:100DE000FFF774FF05E0002000F026F80A20FFF767
:100DF0006DFF2046611C8CB2DC28F4DB10BD0000C6
:100E00000008004001253224FFF73EFFFFF7D4FF22
:100E100011E015B1601C84B201E0601E84B2F02CB8
:100E200000DD0025322C00DA0125204600F004F810
:100E30000A20FFF74BFFECE710B504462046FFF70A
:100E400093FFFFF769FF10BD680E00080000002047
:100E50001800000028010008800E0008180000207B
:100E6000880600004401000800A24A0400000000B7
:100E7000000000000102030406070809000000004A
:04000005080000ED02
:00000001FF
